{
  "contractName": "Funding",
  "abi": [
    {
      "inputs": [],
      "stateMutability": "nonpayable",
      "type": "constructor"
    },
    {
      "anonymous": false,
      "inputs": [
        {
          "indexed": false,
          "internalType": "address",
          "name": "from",
          "type": "address"
        },
        {
          "indexed": false,
          "internalType": "uint256",
          "name": "pId",
          "type": "uint256"
        },
        {
          "indexed": false,
          "internalType": "uint256",
          "name": "price",
          "type": "uint256"
        },
        {
          "indexed": false,
          "internalType": "address",
          "name": "seller",
          "type": "address"
        }
      ],
      "name": "Buy",
      "type": "event"
    },
    {
      "anonymous": false,
      "inputs": [
        {
          "components": [
            {
              "internalType": "uint256",
              "name": "pId",
              "type": "uint256"
            },
            {
              "internalType": "uint256",
              "name": "price",
              "type": "uint256"
            },
            {
              "internalType": "address",
              "name": "seller",
              "type": "address"
            }
          ],
          "indexed": false,
          "internalType": "struct Funding.Buyer",
          "name": "a",
          "type": "tuple"
        },
        {
          "indexed": false,
          "internalType": "uint256",
          "name": "p",
          "type": "uint256"
        }
      ],
      "name": "Log",
      "type": "event"
    },
    {
      "anonymous": false,
      "inputs": [
        {
          "components": [
            {
              "internalType": "uint256",
              "name": "pId",
              "type": "uint256"
            },
            {
              "internalType": "uint256",
              "name": "price",
              "type": "uint256"
            },
            {
              "internalType": "address",
              "name": "seller",
              "type": "address"
            }
          ],
          "indexed": false,
          "internalType": "struct Funding.Product",
          "name": "a",
          "type": "tuple"
        },
        {
          "indexed": false,
          "internalType": "uint256",
          "name": "p",
          "type": "uint256"
        }
      ],
      "name": "Log2",
      "type": "event"
    },
    {
      "anonymous": false,
      "inputs": [
        {
          "indexed": false,
          "internalType": "address",
          "name": "from",
          "type": "address"
        },
        {
          "indexed": false,
          "internalType": "uint256",
          "name": "pId",
          "type": "uint256"
        },
        {
          "indexed": false,
          "internalType": "uint256",
          "name": "price",
          "type": "uint256"
        }
      ],
      "name": "Regist",
      "type": "event"
    },
    {
      "anonymous": false,
      "inputs": [
        {
          "indexed": false,
          "internalType": "address",
          "name": "from",
          "type": "address"
        },
        {
          "indexed": false,
          "internalType": "address",
          "name": "to",
          "type": "address"
        },
        {
          "indexed": false,
          "internalType": "uint256",
          "name": "amount",
          "type": "uint256"
        }
      ],
      "name": "SentEvent",
      "type": "event"
    },
    {
      "inputs": [],
      "name": "chairperson",
      "outputs": [
        {
          "internalType": "address payable",
          "name": "",
          "type": "address"
        }
      ],
      "stateMutability": "view",
      "type": "function",
      "constant": true
    },
    {
      "stateMutability": "payable",
      "type": "receive",
      "payable": true
    },
    {
      "inputs": [
        {
          "internalType": "address payable",
          "name": "_to",
          "type": "address"
        },
        {
          "internalType": "uint256",
          "name": "amount",
          "type": "uint256"
        }
      ],
      "name": "transfer",
      "outputs": [],
      "stateMutability": "payable",
      "type": "function",
      "payable": true
    },
    {
      "inputs": [
        {
          "internalType": "uint256",
          "name": "pId",
          "type": "uint256"
        },
        {
          "internalType": "uint256",
          "name": "price",
          "type": "uint256"
        }
      ],
      "name": "productRegist",
      "outputs": [],
      "stateMutability": "payable",
      "type": "function",
      "payable": true
    },
    {
      "inputs": [
        {
          "internalType": "uint256",
          "name": "pId",
          "type": "uint256"
        }
      ],
      "name": "unregist",
      "outputs": [],
      "stateMutability": "nonpayable",
      "type": "function"
    },
    {
      "inputs": [
        {
          "internalType": "uint256",
          "name": "blockRegId",
          "type": "uint256"
        },
        {
          "internalType": "uint256",
          "name": "pId",
          "type": "uint256"
        },
        {
          "internalType": "address payable",
          "name": "seller",
          "type": "address"
        }
      ],
      "name": "buyRequest",
      "outputs": [],
      "stateMutability": "payable",
      "type": "function",
      "payable": true
    },
    {
      "inputs": [
        {
          "internalType": "address payable",
          "name": "refundAccount",
          "type": "address"
        },
        {
          "internalType": "uint256",
          "name": "reqId",
          "type": "uint256"
        }
      ],
      "name": "refundApply",
      "outputs": [],
      "stateMutability": "payable",
      "type": "function",
      "payable": true
    },
    {
      "inputs": [],
      "name": "balanceOf",
      "outputs": [
        {
          "internalType": "uint256",
          "name": "",
          "type": "uint256"
        }
      ],
      "stateMutability": "view",
      "type": "function",
      "constant": true
    }
  ],
  "bytecode": "0x608060405234801561001057600080fd5b50336000806101000a81548173ffffffffffffffffffffffffffffffffffffffff021916908373ffffffffffffffffffffffffffffffffffffffff16021790555061137f806100606000396000f3fe6080604052600436106100745760003560e01c8063a9059cbb1161004e578063a9059cbb146100f2578063c6b5fc931461010e578063dbd8419c14610137578063e1f6c1eb146101535761007b565b80632e4176cf146100805780634be47de4146100ab578063722713f7146100c75761007b565b3661007b57005b600080fd5b34801561008c57600080fd5b5061009561016f565b6040516100a29190611020565b60405180910390f35b6100c560048036036100c09190810190610d00565b610194565b005b3480156100d357600080fd5b506100dc61035e565b6040516100e99190611200565b60405180910390f35b61010c60048036036101079190810190610c9b565b61037d565b005b34801561011a57600080fd5b5061013560048036036101309190810190610cd7565b610490565b005b610151600480360361014c9190810190610c9b565b61054a565b005b61016d60048036036101689190810190610d3c565b610851565b005b6000809054906101000a900473ffffffffffffffffffffffffffffffffffffffff1681565b61019c610c03565b60405180606001604052808481526020018381526020013373ffffffffffffffffffffffffffffffffffffffff168152509050600360003373ffffffffffffffffffffffffffffffffffffffff1673ffffffffffffffffffffffffffffffffffffffff168152602001908152602001600020819080600181540180825580915050600190039060005260206000209060030201600090919091909150600082015181600001556020820151816001015560408201518160020160006101000a81548173ffffffffffffffffffffffffffffffffffffffff021916908373ffffffffffffffffffffffffffffffffffffffff1602179055505050600160056000858152602001908152602001600020819055506001600660003373ffffffffffffffffffffffffffffffffffffffff1673ffffffffffffffffffffffffffffffffffffffff1681526020019081526020016000208190555061031e6000809054906101000a900473ffffffffffffffffffffffffffffffffffffffff163461037d565b7f0a79a306aaf1f6536b34e764d32add4f4d1a0e38651cf9f2297fc95af3a8226d33848460405161035193929190611072565b60405180910390a1505050565b60003373ffffffffffffffffffffffffffffffffffffffff1631905090565b803373ffffffffffffffffffffffffffffffffffffffff163110156103d7576040517f08c379a00000000000000000000000000000000000000000000000000000000081526004016103ce9061118e565b60405180910390fd5b60008273ffffffffffffffffffffffffffffffffffffffff166108fc839081150290604051600060405180830381858888f19350505050905080610450576040517f08c379a00000000000000000000000000000000000000000000000000000000081526004016104479061112e565b60405180910390fd5b7f2916dc44c7a86dea35f46b3f647f0ef73d57b1232009746e12cf12f697051da23384846040516104839392919061103b565b60405180910390a1505050565b6000809054906101000a900473ffffffffffffffffffffffffffffffffffffffff1673ffffffffffffffffffffffffffffffffffffffff163373ffffffffffffffffffffffffffffffffffffffff16146104e957600080fd5b600060056000838152602001908152602001600020819055506000600660003373ffffffffffffffffffffffffffffffffffffffff1673ffffffffffffffffffffffffffffffffffffffff1681526020019081526020016000208190555050565b6001600660003373ffffffffffffffffffffffffffffffffffffffff1673ffffffffffffffffffffffffffffffffffffffff168152602001908152602001600020541461059657600080fd5b6000600260008473ffffffffffffffffffffffffffffffffffffffff1673ffffffffffffffffffffffffffffffffffffffff16815260200190815260200160002082815481106105e257fe5b90600052602060002090600302016001015490503373ffffffffffffffffffffffffffffffffffffffff16600260008573ffffffffffffffffffffffffffffffffffffffff1673ffffffffffffffffffffffffffffffffffffffff168152602001908152602001600020838154811061065757fe5b906000526020600020906003020160020160009054906101000a900473ffffffffffffffffffffffffffffffffffffffff1673ffffffffffffffffffffffffffffffffffffffff16146106df576040517f08c379a00000000000000000000000000000000000000000000000000000000081526004016106d69061116e565b60405180910390fd5b60008111610722576040517f08c379a00000000000000000000000000000000000000000000000000000000081526004016107199061114e565b60405180910390fd5b7f8b573a04c4709973c6dafda5ae45726fccca4080f17adf7a860f81f68c086e38600260008573ffffffffffffffffffffffffffffffffffffffff1673ffffffffffffffffffffffffffffffffffffffff168152602001908152602001600020838154811061078d57fe5b9060005260206000209060030201826040516107aa9291906111ae565b60405180910390a17f8b573a04c4709973c6dafda5ae45726fccca4080f17adf7a860f81f68c086e38600260008573ffffffffffffffffffffffffffffffffffffffff1673ffffffffffffffffffffffffffffffffffffffff168152602001908152602001600020838154811061081d57fe5b90600052602060002090600302013460405161083a9291906111ae565b60405180910390a161084c833461037d565b505050565b7f679c6e0caf8b72dcbb3aa5cea284b1b61fb7a13ad77e7fa8c63cf3d217b9eb4f600360008373ffffffffffffffffffffffffffffffffffffffff1673ffffffffffffffffffffffffffffffffffffffff16815260200190815260200160002084815481106108bc57fe5b9060005260206000209060030201346040516108d99291906111d7565b60405180910390a181600360008373ffffffffffffffffffffffffffffffffffffffff1673ffffffffffffffffffffffffffffffffffffffff168152602001908152602001600020848154811061092c57fe5b9060005260206000209060030201600001541461097e576040517f08c379a00000000000000000000000000000000000000000000000000000000081526004016109759061110e565b60405180910390fd5b60016005600084815260200190815260200160002054146109d4576040517f08c379a00000000000000000000000000000000000000000000000000000000081526004016109cb906110ee565b60405180910390fd5b670de0b6b3a764000034816109e557fe5b04600360008373ffffffffffffffffffffffffffffffffffffffff1673ffffffffffffffffffffffffffffffffffffffff1681526020019081526020016000208481548110610a3057fe5b90600052602060002090600302016001015414610a4c57600080fd5b343373ffffffffffffffffffffffffffffffffffffffff16311015610a7057600080fd5b610a78610c3a565b60405180606001604052808481526020013481526020018373ffffffffffffffffffffffffffffffffffffffff168152509050600260003373ffffffffffffffffffffffffffffffffffffffff1673ffffffffffffffffffffffffffffffffffffffff168152602001908152602001600020819080600181540180825580915050600190039060005260206000209060030201600090919091909150600082015181600001556020820151816001015560408201518160020160006101000a81548173ffffffffffffffffffffffffffffffffffffffff021916908373ffffffffffffffffffffffffffffffffffffffff16021790555050507ff152feb5fe7641aae5c7f8e8187c26eef1a9d970f7c3794ac442f0842282d93f33843485604051610ba694939291906110a9565b60405180910390a1610bc582605a60643481610bbe57fe5b040261037d565b610bfd6000809054906101000a900473ffffffffffffffffffffffffffffffffffffffff16600a60643481610bf657fe5b040261037d565b50505050565b60405180606001604052806000815260200160008152602001600073ffffffffffffffffffffffffffffffffffffffff1681525090565b60405180606001604052806000815260200160008152602001600073ffffffffffffffffffffffffffffffffffffffff1681525090565b600081359050610c808161131b565b92915050565b600081359050610c9581611332565b92915050565b60008060408385031215610cae57600080fd5b6000610cbc85828601610c71565b9250506020610ccd85828601610c86565b9150509250929050565b600060208284031215610ce957600080fd5b6000610cf784828501610c86565b91505092915050565b60008060408385031215610d1357600080fd5b6000610d2185828601610c86565b9250506020610d3285828601610c86565b9150509250929050565b600080600060608486031215610d5157600080fd5b6000610d5f86828701610c86565b9350506020610d7086828701610c86565b9250506040610d8186828701610c71565b9150509250925092565b610d94816112a4565b82525050565b610da381611268565b82525050565b610db281611256565b82525050565b6000610dc5600b8361121b565b91507f456e642050726f6a6563740000000000000000000000000000000000000000006000830152602082019050919050565b6000610e05601d8361121b565b91507f74686973206973206e6f74207265676973746572642070726f6a6563740000006000830152602082019050919050565b6000610e4560178361121b565b91507f6661696c75726521206574686572206e6f742073656e740000000000000000006000830152602082019050919050565b6000610e8560168361121b565b91507f796f7520646f6e27742062757920616e797468696e67000000000000000000006000830152602082019050919050565b6000610ec5601c8361121b565b91507f796f7572206e6f7420746869732070726f6a6563746d616e61676572000000006000830152602082019050919050565b6000610f05601a8361121b565b91507f796f75722062616c616e6365206973206e6f7420656e6f7567680000000000006000830152602082019050919050565b606082016000808301549050610f4d816112f4565b610f5a6000860182611002565b5060018301549050610f6b816112f4565b610f786020860182611002565b5060028301549050610f89816112da565b610f966040860182610da9565b5050505050565b606082016000808301549050610fb2816112f4565b610fbf6000860182611002565b5060018301549050610fd0816112f4565b610fdd6020860182611002565b5060028301549050610fee816112da565b610ffb6040860182610da9565b5050505050565b61100b8161129a565b82525050565b61101a8161129a565b82525050565b60006020820190506110356000830184610d9a565b92915050565b60006060820190506110506000830186610d8b565b61105d6020830185610d8b565b61106a6040830184611011565b949350505050565b60006060820190506110876000830186610d8b565b6110946020830185611011565b6110a16040830184611011565b949350505050565b60006080820190506110be6000830187610d8b565b6110cb6020830186611011565b6110d86040830185611011565b6110e56060830184610d8b565b95945050505050565b6000602082019050818103600083015261110781610db8565b9050919050565b6000602082019050818103600083015261112781610df8565b9050919050565b6000602082019050818103600083015261114781610e38565b9050919050565b6000602082019050818103600083015261116781610e78565b9050919050565b6000602082019050818103600083015261118781610eb8565b9050919050565b600060208201905081810360008301526111a781610ef8565b9050919050565b60006080820190506111c36000830185610f38565b6111d06060830184611011565b9392505050565b60006080820190506111ec6000830185610f9d565b6111f96060830184611011565b9392505050565b60006020820190506112156000830184611011565b92915050565b600082825260208201905092915050565b600073ffffffffffffffffffffffffffffffffffffffff82169050919050565b6000819050919050565b60006112618261127a565b9050919050565b60006112738261127a565b9050919050565b600073ffffffffffffffffffffffffffffffffffffffff82169050919050565b6000819050919050565b60006112af826112b6565b9050919050565b60006112c1826112c8565b9050919050565b60006112d38261127a565b9050919050565b60006112ed6112e88361130e565b61122c565b9050919050565b60006113076113028361130e565b61124c565b9050919050565b60008160001c9050919050565b61132481611268565b811461132f57600080fd5b50565b61133b8161129a565b811461134657600080fd5b5056fea264697066735822122036c120d34e40f103433749ba321022fe355c77642a7437af609c1ded918c033864736f6c63430006000033",
  "source": "// SPDX-License-Identifier: UNLICENSED\r\npragma solidity >=0.6.0 <0.9.0;\r\npragma experimental ABIEncoderV2;\r\n\r\ncontract Funding{\r\n    address payable public chairperson;\r\n\r\n    struct Buyer{   // From \r\n     // uint userId;\r\n     // address buyer;   // 구매자 address\r\n\r\n    //    uint reqId;      // 거래ID값 --------db와 동일하게 하기..\r\n        uint pId;       //프로젝트 reg_id\r\n        uint price;     // 지불해야 할 금액 / 한 금액\r\n        address seller;\r\n    }\r\n    struct Product{  // to\r\n    //    uint regId;     \r\n        uint pId;        // 프로젝트 reg_id\r\n        uint price;       // 판매 가격 \r\n        address seller;   // 판매자 address\r\n    }\r\n\r\n    mapping (address=>uint) escrow;     // 판매자 수익 \r\n   // mapping (address=>uint) modeProduct;     //등록된 프로젝트인지 확인\r\n    mapping(address => Buyer[]) buyers;            // key value형식으로 활용 됨\r\n    mapping(address => Product[]) products;\r\n    mapping(address => uint) settledReqID;      // 정산 여부 \r\n    mapping(uint => uint) useProject;        //1 사용  0미사용\r\n    mapping(address => uint) membership;    \r\n    \r\n\r\n    modifier onlyChairperson{\r\n        require(msg.sender == chairperson);\r\n        _;\r\n    }\r\n   \r\n    modifier onlySeller{\r\n        require(membership[msg.sender]==1);\r\n        _;\r\n    }\r\n\r\n    //  modifier onlyMember {\r\n    //     require(membership[msg.sender]==1);\r\n    //     _;\r\n    // }\r\n    // modifier onlyModeProduct{\r\n    //     require(modeProduct[msg.sender]==1);\r\n    //     _;\r\n    // }\r\n\r\n    event SentEvent(address from, address to, uint amount);\r\n    event Regist(address from, uint pId, uint price);\r\n    event Buy(address from, uint pId, uint price, address seller);\r\n    event Log (Buyer a, uint p);\r\n    event Log2 (Product a, uint p);\r\n\r\n    constructor() public{  //배포시 동작 \r\n        chairperson = payable(msg.sender);    \r\n    }\r\n\r\n    receive() external payable {}   // 메타마스크 에서 직접 보낼 때\r\n\r\n    function transfer(address payable _to, uint amount) public payable {      \r\n        require (msg.sender.balance >= amount , \"your balance is not enough\");\r\n        bool sent = _to.send(amount);\r\n        require(sent, \"failure! ether not sent\");\r\n        emit SentEvent( msg.sender, _to , amount);    //-- 이벤트 발생  \r\n    }\r\n\r\n    // 프로젝트 등록  \r\n    function productRegist(uint pId, uint price) external payable {    \r\n        Product memory p = Product({\r\n            pId : pId,\r\n            price : price,\r\n            seller : msg.sender\r\n        });\r\n        products[msg.sender].push(p);\r\n  //    products[msg.sender] = Product( pId, price, msg.sender);\r\n\r\n        useProject[pId] = 1;    // pId사용 여부\r\n        membership[msg.sender] = 1;\r\n\r\n        transfer(chairperson, msg.value);\r\n        emit Regist(msg.sender,pId, price);\r\n\r\n    }\r\n\r\n    function unregist(uint pId) onlyChairperson external{\r\n        useProject[pId]=0;\r\n        membership[msg.sender] = 0;\r\n    //    settlementOfCharge(pId);\r\n    }\r\n\r\n    \r\n    // 상품 결제 + 구매 이력 남음 \r\n    function buyRequest(uint blockRegId, uint pId, address payable seller) external payable{\r\n        emit Log2(products[seller][blockRegId],msg.value);\r\n        require(products[seller][blockRegId].pId == pId, \"this is not registerd project\"); \r\n        require(useProject[pId]==1, \"End Project\");  \r\n        // 돈 단위에 따라서 파악..\r\n        require(products[seller][blockRegId].price == msg.value/1000000000000000000 ); //, \"given price does not match!\"\r\n        require (msg.sender.balance >= msg.value ); //, \"your balance is not enough\"\r\n\r\n        Buyer memory b = Buyer({\r\n            pId: pId,\r\n            price: msg.value,\r\n            seller: seller\r\n        });\r\n        buyers[msg.sender].push(b); \r\n        emit Buy(msg.sender, pId, msg.value, seller);\r\n\r\n    //    buyers[msg.sender] = Buyer(reqId, pId, msg.value, seller);   //-- mappging에 struct배열 아닐 때 \r\n    //    escrow[seller] = msg.value;  \r\n        transfer(seller, msg.value /100 * 90);\r\n        transfer(chairperson, msg.value/100*10);\r\n    } \r\n\r\n      // 환불진행  -- 환불 요청은 웹에서 \r\n      // req안 맞으면 바로 revert됨 \r\n    function refundApply(address payable refundAccount, uint reqId) onlySeller external payable{\r\n        uint refundPrice = buyers[refundAccount][reqId].price;\r\n        require(buyers[refundAccount][reqId].seller == msg.sender, \"your not this projectmanager\");\r\n        require( refundPrice > 0, \"you don't buy anything\");\r\n        emit Log(buyers[refundAccount][reqId] , refundPrice );\r\n        emit Log(buyers[refundAccount][reqId] , msg.value );\r\n\r\n        transfer(refundAccount, msg.value);\r\n    }\r\n\r\n    // function settlementOfCharge(uint pId) public payable{                 // 본인 escrow -> 본인 실제 지갑\r\n    //     address account = msg.sender;\r\n    //     uint money = msg.value;\r\n    //     //    require(escrow[account]!=0,\"정산할 금액이 없습니다\");\r\n    //     //    require(settledReqID[account]==pId, \"already settled or doesn't match any account\" );\r\n    //     //    settledReqID[account] = pId;  \r\n\r\n    //     transfer(chairperson, escrow[account] / 100 * 10);  \r\n    //     escrow[account] = escrow[account] - escrow[account] / 100 * 10;\r\n\r\n    //     //맞는지 확인 필요\r\n    //     transfer( payable(account), escrow[account]);    //  payable(account).transfer(escrow[account]);\r\n    //     escrow[account] = 0;     \r\n    // }\r\n\r\n    function balanceOf() external view returns(uint){\r\n        return msg.sender.balance;\r\n       // return address(this).balance;\r\n    }\r\n\r\n    // function balanceOfSeller() external view returns(uint){         // 현재 에스크로에 잔액  (수수료 떼기 전) \r\n    //     return escrow[address(this)];\r\n    // }\r\n\r\n    \r\n\r\n}\r\n\r\n// if(msg.sender != chairperson) {revert();}   --tx막음\r\n// if문 대신 require 사용 \r\n// HYPERLINK \"htttp://sss\"sender.vote = toProposal;              책 85p\r\n// transfer로 실제 토큰 주고 받음 \r\n// 블록체인에 저장할 필요 없는 로컬 변수는 memeory타입  \r\n// mapping 값 받아오는 문법 :: uint playerTwoHighScore = 매핑변수[adress값];     -- default=0\r\n\r\n// + event emit으로 이벤트 수행",
  "sourcePath": "C:\\Users\\USER\\Desktop\\실무프로젝트(졸작)\\Mode-Dapp\\mode-contract\\contracts\\Funding.sol",
  "compiler": {
    "name": "solc",
    "version": "0.6.0+commit.26b70077.Emscripten.clang"
  },
  "schemaVersion": "3.0.23",
  "updatedAt": "2022-12-21T17:18:41.825Z",
  "networkType": "ethereum",
  "devdoc": {
    "methods": {}
  },
  "userdoc": {
    "methods": {}
  }
}